:100000000C9432010C9463010C9463010C94630111
:100010000C9463010C9463010C9463010C946301D0
:100020000C9463010C9463010C9463010C946301C0
:100030000C9463010C9463010C9463010C946301B0
:100040000C9463010C9463010C9463010C946301A0
:100050000C9463010C9463010C9463010C94AA0644
:100060000C9463010C9405050C943B050C946301FE
:100070000C9463010C9463010C9463010C94630170
:100080000C9463010C9463010C9463010C94630160
:100090000C9463010C9463010C9463010C94630150
:1000A0000C9463010C9463010C9463010C94630140
:1000B0000C9463010C9463010C9463010C94630130
:1000C0000C9463010C9463010C9463010C94630120
:1000D0000C9463010C9463010C9463010C94630110
:1000E0000C9463010C94FD070C9415080C94BC034C
:1000F0000C9419080C946F050C949C050C94360410
:100100000C9456040C94D0030C94DF030C94230835
:100110000C9465050C94B8010C9403080C94B4017C
:100120000C94DE070C9407080C94F9070C94F00764
:100130000C94A2030C94E4070C9411080C94F3079C
:100140000C941E080C94E8070C94EC070C940B0814
:100150000C94AE030C941F0800000A0B02090C0D4E
:100160000E0807030401000000000000000000006A
:10017000000000000000000000000000000000007F
:10018000000000001211100000000000000000003C
:10019000000000000000000000000000000001025C
:1001A0001020200808102040102040800201020189
:1001B0000804020101020408102040808040201041
:1001C000080402018004020180402010080402019A
:1001D0000804020101020408102040800102040802
:1001E00010204080050505050705080808080202DB
:1001F00002020A0A080804040404010101010101C1
:1002000001010303030303030303040707070C0CA3
:100210000C0C0C0C0C0C020202020606060606066A
:1002200006060B0B0B0B0B0B0B0B00002200250023
:1002300028002B002E0031003400020100000501CF
:1002400008010B0100002100240027002A002D00D6
:100250003000330001010000040107010A01B4016C
:100260006F05B80111241FBECFEFD1E2DEBFCDBFB5
:1002700000E00CBF12E0A0E0B2E0E6EEF3E100E047
:100280000BBF02C007900D92A638B107D9F723E043
:10029000A6E8B2E001C01D92AE33B207E1F711E06B
:1002A000C1E3D1E000E006C021970109802FFE01E3
:1002B0000E94B408CF32D10780E00807A9F70E9456
:1002C00099060C94E1090C94000026E040E855E200
:1002D00060E070E084E992E00E94A30461E08DE0B8
:1002E0000C942708CF93DF93EC0166E072E084E979
:1002F00092E00E94D805688179814AE050E084E963
:1003000092E00E9486066FE072E084E992E00E942B
:10031000D8056A817B814AE050E084E992E0DF9170
:10032000CF910C94860680918602811108C061E00D
:100330008DE00E94630881E080938602089560E06A
:100340008DE00E94630810928602089587E892E08B
:100350000E946403FC012081318137FD04C00E94AA
:1003600072010C949301089587E892E00C94BC010B
:1003700087E892E00C943F02CF93DF93EC0184E195
:1003800090E00E94A806998388838EE78B831A8267
:1003900088E290E00E94A8069D838C8384E090E030
:1003A0000E94A8069F838E83EC81FD8128E132E0C4
:1003B000318320832CE132E03383228320E232E058
:1003C0003583248324E232E03783268329E232E036
:1003D000318720872EE232E03387228723E332E021
:1003E0003587248727E332E0378726872BE332E0FF
:1003F000318B208B2FE332E0338B228B24E432E0ED
:10040000358B248B29E432E0378B268B2EE432E0C7
:10041000318F208F22E532E0338F228F26E532E0C4
:10042000358F248F2AE532E0378F268F2FE532E093
:1004300031A320A324E632E033A322A329E632E04D
:1004400035A324A32DE632E037A326A3FC011182B5
:100450001082138212820E94F406688779878A8745
:100460009B8790E080E0E881F981E80FF91F108216
:10047000019684319105B9F7DF91CF9108950895E0
:10048000FB019C012D5F3F4FDC015D91CD0141914E
:10049000541305C0A217B307B9F781E0089580E0AF
:1004A00008959F92AF92BF92CF92DF92EF92FF9208
:1004B0000F931F93CF93DF937C01EB016A0110E050
:1004C00000E05B0184E1A80EB11C9924939484E9B7
:1004D00092E00E94A20318161906B4F484E992E08F
:1004E0000E94BC03F7018283F6019081891308C042
:1004F000FE011192EA15FB05E1F790929302E7CF16
:100500008A3079F410929302CE01DF91CF911F913E
:100510000F91FF90EF90DF90CF90BF90AF909F90A2
:10052000089590919302992321F0FE01E00FF11FAD
:1005300080830F5F1F4FCBCF4F925F926F927F925E
:100540008F929F92AF92BF92CF92DF92EF92FF92E3
:100550000F931F93CF93DF93CDB7DEB76F970FB68F
:10056000F894DEBF0FBECDBF6B018A011F8E20E362
:100570002D8B21E32E8B22E32F8B23E3288F24E383
:10058000298F25E32A8F26E32B8F27E32C8F28E35F
:100590002D8F29E32E8F9E012F5F3F4F79014E0152
:1005A00035E1830E911CF70111921192E815F905BE
:1005B000D9F7AC014D5F5F4FDC016D917C910E94DA
:1005C00051022C015601D12CC12C66246A94762C40
:1005D000B201F501819191915F010E94400288234F
:1005E00009F43FC0D801CD92DC92F201A201465F2E
:1005F0005F4F90E030E020E0BE01615E7F4F81916F
:10060000883221F08932E9F1992391F0D4019D914A
:10061000891333C0D901AA0FBB1FAE0DBF1D082E11
:10062000000C990BC0978D939C932F5F3F4F91E0E7
:100630004E175F0721F750E040E090E080E0EAE0ED
:100640002417350701F1E89FB001E99F700D1124CF
:10065000D7018D919D917D01860F971F4F5F5F4F51
:10066000EFCFF80171826082FFEFCF1ADF0A24E139
:10067000C216D10409F0ACCFB8CF6A177B0739F6A0
:10068000D6CF90E0D5CFF8019383828364E170E008
:1006900080E090E00E942507C8016F960FB6F8949D
:1006A000DEBF0FBECDBFDF91CF911F910F91FF90A5
:1006B000EF90DF90CF90BF90AF909F908F907F9002
:1006C0006F905F904F900895CF92DF92EF92FF92DC
:1006D0000F931F93CF93DF93EC014E815F816C8169
:1006E0007D810E949C028C010E94F406C884D984FA
:1006F000EA84FB846C197D098E099F0963307105BA
:100700008105910588F090E080E0E881F981E80FAB
:10071000F91F1082019684319105B9F70E94F40601
:10072000688779878A879B8784E992E00E943604EC
:10073000C801DF91CF911F910F91FF90EF90DF9053
:10074000CF900895FC01918D228D892F90E0805CDF
:100750009F4F821B91098F7399270895FC01918DFA
:10076000828D981731F0828DE80FF11D858D90E014
:1007700008958FEF9FEF0895FC01918D828D98175A
:1007800061F0A28DAE0FBF2FB11D5D968C91928D41
:100790009F5F9F73928F90E008958FEF9FEF089572
:1007A000FC01538D448D252F30E0842F90E0821B77
:1007B000930B541710F0CF9608950197089585E68E
:1007C00095E0892B49F080E090E0892B29F00E9488
:1007D000650581110E94000080E090E0892B49F0BE
:1007E00080E090E0892B29F00E94000081110E9496
:1007F000000080E090E0892B49F080E090E0892BB8
:1008000029F00E94000081110E94000080E090E029
:10081000892B49F080E090E0892B29F00E940000AC
:1008200081110C9400000895FC01A48DA80FB92F2C
:10083000B11DA35ABF4F2C91848D90E001968F7308
:100840009927848FA689B7892C93A089B1898C9127
:10085000837080648C93938D848D981306C0028876
:10086000F389E02D80818F7D80830895CF93DF937E
:10087000EC01888D8823B9F0AA89BB89E889F989B8
:100880008C9185FD03C0808186FD0DC00FB607FCED
:10089000F7CF8C9185FFF2CF808185FFEDCFCE0120
:1008A0000E941404E9CFDF91CF910895EF92FF9257
:1008B0000F931F93CF93DF93EC0181E0888F9B8D83
:1008C0008C8D98131AC0E889F989808185FF15C03D
:1008D0009FB7F894EE89FF896083E889F989808160
:1008E0008370806480839FBF81E090E0DF91CF912F
:1008F0001F910F91FF90EF900895F62E0B8D10E051
:100900000F5F1F4F0F731127E02E8C8D8E110CC0BF
:100910000FB607FCFACFE889F989808185FFF5CF0A
:10092000CE010E941404F1CFEB8DEC0FFD2FF11DD1
:10093000E35AFF4FF0829FB7F8940B8FEA89FB8947
:1009400080818062CFCFCF92DF92EF92FF921F9390
:10095000CF93DF93EC016A017B01122FE889F989BB
:1009600082E08083C11481EED806E104F104A1F095
:1009700060E079E08DE390E0A70196010E94920883
:1009800021503109410951095695479537952795C9
:10099000211580E1380798F0E889F989108260E82C
:1009A00074E88EE190E0A70196010E949208215020
:1009B0003109410951095695479537952795EC8599
:1009C000FD853083EE85FF852083188EEC89FD89B7
:1009D0001083EA89FB89808180618083EA89FB89B1
:1009E000808188608083EA89FB8980818068808338
:1009F000EA89FB8980818F7D8083DF91CF911F9170
:100A0000FF90EF90DF90CF9008951F920F920FB656
:100A10000F9211240BB60F922F938F939F93EF9306
:100A2000FF93E091A402F091A5028081E091AA02D7
:100A3000F091AB0282FD1DC090818091AD028F5F6D
:100A40008F732091AE02821741F0E091AD02F0E089
:100A5000EC56FD4F958F8093AD02FF91EF919F91E2
:100A60008F912F910F900BBE0F900FBE0F901F9084
:100A700018958081F2CF1F920F920FB60F9211241A
:100A80000BB60F922F933F934F935F936F937F9388
:100A90008F939F93AF93BF93EF93FF9384E992E07B
:100AA0000E941404FF91EF91BF91AF919F918F919C
:100AB0007F916F915F914F913F912F910F900BBE5E
:100AC0000F900FBE0F901F90189584E992E00E943E
:100AD000A20321E0892B09F420E0822F0895E4E9A4
:100AE000F2E01382128288EE93E0A0E0B0E084830B
:100AF0009583A683B78385E792E09183808385EC15
:100B000090E09587848784EC90E09787868780ECD7
:100B100090E0918B808B81EC90E0938B828B82ECC8
:100B200090E0958B848B86EC90E0978B868B118E72
:100B3000128E138E148E0895AF92BF92CF92DF92D1
:100B4000EF92FF920F931F93CF93DF936C017B0182
:100B50008B01040F151FEB015E01AE18BF08C01713
:100B6000D10759F06991D601ED91FC910190F08186
:100B7000E02DC6011995892B79F7C501DF91CF9139
:100B80001F910F91FF90EF90DF90CF90BF90AF90AB
:100B90000895FB0101900020E9F73197AF01461B52
:100BA000570BDC01ED91FC910280F381E02D19944B
:100BB0006115710511F00C94C90590E080E008956D
:100BC000DC01ED91FC910190F081E02D199463E836
:100BD00072E00C94C9058F929F92AF92BF92EF92F0
:100BE000FF920F931F93CF93DF93CDB7DEB7A197FB
:100BF0000FB6F894DEBF0FBECDBF7C01FA01CB016A
:100C000019A2223008F42AE08E010F5D1F4F822EB8
:100C1000912CB12CA12CBF01A50194010E94920836
:100C2000F901CA016A300CF5605DD8016E938D013F
:100C3000232B242B252B79F790E080E0109721F0CF
:100C4000BD01C7010E94C905A1960FB6F894DEBF89
:100C50000FBECDBFDF91CF911F910F91FF90EF900D
:100C6000BF90AF909F908F900895695CDECFCF9238
:100C7000DF92EF92FF920F931F93CF93DF93211593
:100C8000310581F4DC01ED91FC910190F081E02DC2
:100C9000642FDF91CF911F910F91FF90EF90DF9024
:100CA000CF9019942A30310501F52AE077FF1DC055
:100CB0006A017B01EC016DE20E94E0058C01442792
:100CC0005527BA014C195D096E097F092AE0CE014A
:100CD0000E94EB05800F911FDF91CF911F910F9123
:100CE000FF90EF90DF90CF900895DF91CF911F910B
:100CF0000F91FF90EF90DF90CF900C94EB059A014D
:100D0000AB01770F660B770B0C9437060F931F938D
:100D1000CF93DF93EC010E947F068C01CE010E94ED
:100D2000E705800F911FDF91CF911F910F910895DB
:100D300008950E945E070E9498060E946501CFED0B
:100D4000D3E00E94A6012097E1F30E94DF03F9CFD0
:100D50000C94BC081F920F920FB60F9211242F9380
:100D60003F938F939F93AF93BF9380913203909162
:100D70003303A0913403B09135033091310323E064
:100D8000230F2D3758F50196A11DB11D2093310376
:100D90008093320390933303A0933403B0933503CD
:100DA0008091360390913703A0913803B0913903B5
:100DB0000196A11DB11D8093360390933703A09334
:100DC0003803B0933903BF91AF919F918F913F91B9
:100DD0002F910F900FBE0F901F90189526E8230FAC
:100DE0000296A11DB11DD2CF2FB7F89460913203A6
:100DF0007091330380913403909135032FBF089590
:100E00003FB7F8948091360390913703A09138034F
:100E1000B091390326B5A89B05C02F3F19F0019664
:100E2000A11DB11D3FBFBA2FA92F982F8827BC0144
:100E3000CD01620F711D811D911D42E0660F771F6C
:100E4000881F991F4A95D1F708958F929F92AF926C
:100E5000BF92CF92DF92EF92FF926B017C010E94D2
:100E600000074B015C01C114D104E104F104E9F075
:100E70000E9491080E940007681979098A099B0954
:100E8000683E73408105910570F321E0C21AD108D4
:100E9000E108F10888EE880E83E0981EA11CB11CC1
:100EA000C114D104E104F10429F7FF90EF90DF9021
:100EB000CF90BF90AF909F908F900895789484B515
:100EC000826084BD84B5816084BD85B5826085BD46
:100ED00085B5816085BDEEE6F0E08081816080832C
:100EE000E1E8F0E01082808182608083808181600F
:100EF0008083E0E8F0E0808181608083E1EBF0E0D6
:100F0000808184608083E0EBF0E080818160808379
:100F1000E1E9F0E08081826080838081816080836C
:100F2000E0E9F0E0808181608083E1EAF0E08081A7
:100F300082608083808181608083E0EAF0E080814C
:100F400081608083E1E2F1E0808182608083808142
:100F500081608083E0E2F1E0808181608083EAE764
:100F6000F0E08081846080838081826080838081E2
:100F7000816080838081806880831092C1000895A1
:100F80008150823108F05AC0E82FF0E08827E453FE
:100F9000F84F8F4F0C94B408EC07F007DE07E40716
:100FA000E8071E08F307F907FD07030807080B0801
:100FB000110815081E0819081F08230880918000D1
:100FC0008F77809380000895809180008F7DF9CF86
:100FD00080918000877FF5CF84B58F7784BD089599
:100FE00084B58F7DFBCF8091B0008F778093B00068
:100FF00008958091B0008F7DF9CF809190008F7718
:10100000809390000895809190008F7DF9CF80911A
:101010009000877FF5CF8091A0008F778093A0000C
:1010200008958091A0008F7DF9CF8091A000877FE7
:10103000F5CF809120018F778093200108958091D2
:1010400020018F7DF9CF80912001877FF5CFCF934D
:10105000DF9390E0FC01E256FE4F24918C519E4FAD
:10106000FC0184918823C9F090E0880F991FFC014E
:10107000EC5BFD4FA591B491FC01E65DFD4FC59180
:10108000D49161110DC09FB7F8948C912095822363
:101090008C938881282328839FBFDF91CF91089567
:1010A000623051F49FB7F8943C91822F809583234E
:1010B0008C93E8812E2BEFCF8FB7F894EC912E2BE9
:1010C0002C938FBFEACF1F93CF93DF93282F30E06D
:1010D000F901E85AFE4F8491F901E256FE4FD4918E
:1010E000F901EC51FE4FC491CC23A9F0162F8111C8
:1010F0000E94C007EC2FF0E0EE0FFF1FE65DFD4FF2
:10110000A591B4918FB7F894EC91111108C0D095C6
:10111000DE23DC938FBFDF91CF911F910895DE2BEB
:10112000F8CF0895A1E21A2EAA1BBB1BFD010DC02A
:10113000AA1FBB1FEE1FFF1FA217B307E407F50787
:1011400020F0A21BB30BE40BF50B661F771F881F63
:10115000991F1A9469F760957095809590959B01F9
:10116000AC01BD01CF010895EE0FFF1F881F8BBF9B
:101170000790F691E02D19940F931F93CF93DF936F
:101180008230910510F482E090E0E0913C03F09110
:101190003D0330E020E0B0E0A0E0309799F4211565
:1011A000310509F44AC0281B390B24303105D8F524
:1011B0008A819B816115710589F1FB01938382838B
:1011C000FE0111C0408151810281138148175907E6
:1011D000E0F04817590799F4109761F012960C93B4
:1011E000129713961C933296CF01DF91CF911F91E6
:1011F0000F91089500933C0310933D03F4CF211504
:10120000310551F04217530738F0A901DB019A016B
:10121000BD01DF01F801C1CFEF01F9CF90933D038C
:1012200080933C03CDCFFE01E20FF31F8193919396
:101230002250310939832883D7CF20913A03309146
:101240003B03232B41F4209102023091030230939F
:101250003B0320933A0320910002309101022115B3
:10126000310541F42DB73EB740910402509105027B
:10127000241B350BE0913A03F0913B03E217F3078F
:10128000A0F42E1B3F0B2817390778F0AC014E5FF6
:101290005F4F2417350748F04E0F5F1F50933B03F5
:1012A00040933A03819391939FCFF0E0E0E09CCF8D
:1012B000CF93DF930097E9F0FC01329713821282FB
:1012C000A0913C03B0913D03ED0130E020E0109788
:1012D000A1F420813181820F931F20913A03309134
:1012E0003B032817390709F061C0F0933B03E093F3
:1012F0003A03DF91CF910895EA01CE17DF07E8F5B1
:101300004A815B819E0141155105B1F7E901FB83DB
:10131000EA8349915991C40FD51FEC17FD0761F479
:10132000808191810296840F951FE90199838883BA
:10133000828193819B838A83F0E0E0E012968D9115
:101340009C9113970097B9F52D913C911197CD0180
:101350000296820F931F20913A0330913B03281786
:10136000390739F6309751F510923D0310923C033E
:10137000B0933B03A0933A03BCCFD383C283408195
:101380005181840F951FC817D90761F44E5F5F4FD5
:1013900088819981480F591F518340838A819B819D
:1013A000938382832115310509F0B0CFF0933D037B
:1013B000E0933C039ECFFD01DC01C0CF138212827B
:1013C000D7CF11E0C1E3D1E000E006C0802FFE01DD
:1013D0000E94B4082196011DC233D10780E008079E
:0613E000A9F7F894FFCF0D
:1013E60000003E038000615B305D202D3E200061E1
:1013F6005B315D202D3E200047455400505554007A
:10140600515554005445535400544F5354005449B5
:10141600535400474F5400504F54005159540054F0
:10142600555354005441535400545953540047558E
:10143600540050455400514F5400544543540054F1
:1014460049435400544F43540047454400505544C3
:10145600000000000056049C05D0033604A203BC1D
:0614660003AE030D0A00B5
:00000001FF
