:100000000C948D000C94BE000C94BE000C94BE00A9
:100010000C94BE000C94BE000C94BE000C94BE0068
:100020000C94BE000C94BE000C94BE000C94BE0058
:100030000C94BE000C94BE000C94BE000C94BE0048
:100040000C94BE000C94BE000C94BE000C94BE0038
:100050000C94BE000C94BE000C94BE000C943804AA
:100060000C94BE000C9477020C94AD020C94BE006C
:100070000C94BE000C94BE000C94BE000C94BE0008
:100080000C94BE000C94BE000C94BE000C94BE00F8
:100090000C94BE000C94BE000C94BE000C94BE00E8
:1000A0000C94BE000C94BE000C94BE000C94BE00D8
:1000B0000C94BE000C94BE000C94BE000C94BE00C8
:1000C0000C94BE000C94BE000C94BE000C94BE00B8
:1000D0000C94BE000C94BE000C94BE000C94BE00A8
:1000E0000C94BE000C9414010C94C8010C94E5000F
:1000F0000C94A8010C94E1000C940E030C94E10202
:100100000C9420010C9442010C94D7020C945101E0
:100110000C942E01E100E102E50011241FBECFEF97
:10012000D1E2DEBFCDBF00E00CBF12E0A0E0B2E044
:10013000E0E5FAE000E00BBF02C007900D92AC31A1
:10014000B107D9F722E0ACE1B2E001C01D92AB3CAF
:10015000B207E1F710E0CCE8D0E000E006C021975C
:100160000109802FFE010E940605CA38D10780E0F0
:100170000807A9F70E9429040C9416050C940000A6
:100180000E94EA006091020270E04AE050E085E2DD
:1001900092E00E94F0034AE050E06091240285E280
:1001A00092E00C94160426E040E855E260E070E02E
:1001B00085E292E00E9415028CE192E00C94C0006E
:1001C00008958CE192E00C9412018CE192E00C9481
:1001D000E900089590E080E00E940E0580931D02E2
:1001E000089584E18093220288E08093210298E1BF
:1001F0009093200280931F0210921E0286E180934A
:10020000240286E08093230281E08093050280939C
:1002100004028093030280930202109201028093F1
:10022000000208950C94F100FC01918D228D892F1C
:1002300090E0805C9F4F821B91098F7399270895EE
:10024000FC01918D828D981731F0828DE80FF11DA0
:10025000858D90E008958FEF9FEF0895FC01918DBB
:10026000828D981761F0A28DAE0FBF2FB11D5D96E4
:100270008C91928D9F5F9F73928F90E008958FEF86
:100280009FEF0895FC01538D448D252F30E0842F7E
:1002900090E0821B930B541710F0CF9608950197AE
:1002A000089587ED92E0892B49F080E090E0892B5A
:1002B00029F00E94D70281110E94000080E090E0A6
:1002C000892B49F080E090E0892B29F00E94000002
:1002D00081110E94000080E090E0892B49F080E0CD
:1002E00090E0892B29F00E94000081110E940000FB
:1002F00080E090E0892B49F080E090E0892B29F0A4
:100300000E94000081110C9400000895FC01A48D4E
:10031000A80FB92FB11DA35ABF4F2C91848D90E027
:1003200001968F739927848FA689B7892C93A0890A
:10033000B1898C91837080648C93938D848D981394
:1003400006C00288F389E02D80818F7D8083089527
:10035000CF93DF93EC01888D8823B9F0AA89BB89FC
:10036000E889F9898C9185FD03C0808186FD0DC0E7
:100370000FB607FCF7CF8C9185FFF2CF808185FF08
:10038000EDCFCE010E948601E9CFDF91CF91089594
:10039000EF92FF920F931F93CF93DF93EC0181E0D5
:1003A000888F9B8D8C8D98131AC0E889F98980817C
:1003B00085FF15C09FB7F894EE89FF896083E889AF
:1003C000F98980818370806480839FBF81E090E0A1
:1003D000DF91CF911F910F91FF90EF900895F62E2E
:1003E0000B8D10E00F5F1F4F0F731127E02E8C8DC8
:1003F0008E110CC00FB607FCFACFE889F98980810D
:1004000085FFF5CFCE010E948601F1CFEB8DEC0F79
:10041000FD2FF11DE35AFF4FF0829FB7F8940B8F29
:10042000EA89FB8980818062CFCFCF92DF92EF9201
:10043000FF921F93CF93DF93EC016A017B01122F90
:10044000E889F98982E08083C11481EED806E1044D
:10045000F104A1F060E079E08DE390E0A70196015E
:100460000E94E404215031094109510956954795EC
:1004700037952795211580E1380798F0E889F989A3
:10048000108260E874E88EE190E0A70196010E9476
:10049000E404215031094109510956954795379592
:1004A0002795EC85FD853083EE85FF852083188EAA
:1004B000EC89FD891083EA89FB89808180618083D2
:1004C000EA89FB89808188608083EA89FB89808151
:1004D00080688083EA89FB8980818F7D8083DF91BA
:1004E000CF911F91FF90EF90DF90CF9008951F92D2
:1004F0000F920FB60F9211240BB60F922F938F937A
:100500009F93EF93FF93E0913502F0913602808143
:10051000E0913B02F0913C0282FD1DC090818091F0
:100520003E028F5F8F7320913F02821741F0E0916E
:100530003E02F0E0EB5DFD4F958F80933E02FF9110
:10054000EF919F918F912F910F900BBE0F900FBE47
:100550000F901F9018958081F2CF1F920F920FB6C7
:100560000F9211240BB60F922F933F934F935F93EB
:100570006F937F938F939F93AF93BF93EF93FF936B
:1005800085E292E00E948601FF91EF91BF91AF91C9
:100590009F918F917F916F915F914F913F912F919B
:1005A0000F900BBE0F900FBE0F901F90189585E215
:1005B00092E00E94140121E0892B09F420E0822FAF
:1005C0000895E5E2F2E01382128288EE93E0A0E063
:1005D000B0E084839583A683B7838AE092E0918319
:1005E000808385EC90E09587848784EC90E0978702
:1005F000868780EC90E0918B808B81EC90E0938BF0
:10060000828B82EC90E0958B848B86EC90E0978BCC
:10061000868B118E128E138E148E0895AF92BF9218
:10062000CF92DF92EF92FF920F931F93CF93DF93BE
:100630006C017B018B01040F151FEB015E01AE18ED
:10064000BF08C017D10759F06991D601ED91FC910F
:100650000190F081E02DC6011995892B79F7C5012C
:10066000DF91CF911F910F91FF90EF90DF90CF908E
:10067000BF90AF900895FB0101900020E9F73197FA
:10068000AF01461B570BDC01ED91FC910280F38119
:10069000E02D1994DC01ED91FC910190F081E02DA9
:1006A000199468E172E00C943B038F929F92AF9291
:1006B000BF92EF92FF920F931F93CF93DF93CDB72B
:1006C000DEB7A1970FB6F894DEBF0FBECDBF7C0199
:1006D000FA01CB0119A2223008F42AE08E010F5D45
:1006E0001F4F822E912CB12CA12CBF01A50194018A
:1006F0000E94E404F901CA016A300CF5605DD8017A
:100700006E938D01232B242B252B79F790E080E02D
:10071000109721F0BD01C7010E943B03A1960FB6BF
:10072000F894DEBF0FBECDBFDF91CF911F910F9127
:10073000FF90EF90BF90AF909F908F900895695C6D
:10074000DECFCF92DF92EF92FF920F931F93CF9362
:10075000DF932115310581F4DC01ED91FC910190CD
:10076000F081E02D642FDF91CF911F910F91FF90C9
:10077000EF90DF90CF9019942A30310501F52AE0EF
:1007800077FF1DC06A017B01EC016DE20E944A0304
:100790008C0144275527BA014C195D096E097F0960
:1007A0002AE0CE010E945503800F911FDF91CF9167
:1007B0001F910F91FF90EF90DF90CF900895DF9100
:1007C000CF911F910F91FF90EF90DF90CF900C94FD
:1007D00055039A01AB01770F660B770B0C94A103BD
:1007E0000F931F93CF93DF93EC010E94E9038C01D9
:1007F000CE010E945103800F911FDF91CF911F9175
:100800000F9108952115310541F4DC01ED91FC9122
:100810000190F081E02D642F19940C9455039A01F6
:10082000462F50E070E060E00C9402040F931F9399
:10083000CF93DF93EC010E940F048C01CE010E9444
:100840005103800F911FDF91CF911F910F91089558
:1008500008950E9482040E9428040E94D300C1E5EA
:10086000D1E00E94E0002097E1F30E945101F9CF0E
:100870001F920F920FB60F9211242F933F938F93D5
:100880009F93AF93BF938091C3029091C402A091B4
:10089000C502B091C6023091C20223E0230F2D376A
:1008A00058F50196A11DB11D2093C2028093C30289
:1008B0009093C402A093C502B093C6028091C70270
:1008C0009091C802A091C902B091CA020196A11DDF
:1008D000B11D8093C7029093C802A093C902B09340
:1008E000CA02BF91AF919F918F913F912F910F902D
:1008F0000FBE0F901F90189526E8230F0296A11D9A
:10090000B11DD2CF789484B5826084BD84B58160F6
:1009100084BD85B5826085BD85B5816085BDEEE607
:10092000F0E0808181608083E1E8F0E010828081E6
:1009300082608083808181608083E0E8F0E0808154
:1009400081608083E1EBF0E0808184608083E0EB74
:10095000F0E0808181608083E1E9F0E08081826065
:100960008083808181608083E0E9F0E08081816024
:100970008083E1EAF0E08081826080838081816011
:100980008083E0EAF0E0808181608083E1E2F1E051
:10099000808182608083808181608083E0E2F1E0F9
:1009A000808181608083EAE7F0E0808184608083D9
:1009B0008081826080838081816080838081806883
:1009C00080831092C1000895A1E21A2EAA1BBB1BBE
:1009D000FD010DC0AA1FBB1FEE1FFF1FA217B3070B
:1009E000E407F50720F0A21BB30BE40BF50B661F21
:1009F000771F881F991F1A9469F7609570958095E5
:100A000090959B01AC01BD01CF010895EE0FFF1F32
:100A1000881F8BBF0790F691E02D1994F999FECFAE
:100A200092BD81BDF89A992780B5089510E0CCE871
:100A3000D0E000E006C0802FFE010E94060521964E
:100A4000011DCD38D10780E00807A9F7F894FFCF42
:100A500001010101010100000000C8010E03420173
:0C0A6000A80114012E0120010D0A000065
:00000001FF
