:100000000C94ED000C941E010C941E010C941E0126
:100010000C941E010C941E010C941E010C941E01E4
:100020000C941E010C941E010C941E010C941E01D4
:100030000C941E010C941E010C941E010C941E01C4
:100040000C941E010C941E010C941E010C941E01B4
:100050000C941E010C941E010C941E010C941E079E
:100060000C941E010C94CF040C9405050C941E01F5
:100070000C941E010C941E010C941E010C941E0184
:100080000C941E010C941E010C941E010C941E0174
:100090000C941E010C941E010C941E010C941E0164
:1000A0000C941E010C941E010C941E010C941E0154
:1000B0000C941E010C941E010C941E010C941E0144
:1000C0000C941E010C941E010C941E010C941E0134
:1000D0000C941E010C941E010C941E010C941E0124
:1000E0000C941E010C9478030C942F050C94390584
:1000F0000C9400040C9486030C949A030C946605EB
:100100000C9460010C945C010C94A9030C942004E1
:100110000C946C03010210202008081020401020CD
:1001200040800201020108040201010204081020BB
:1001300040808040201008040201800402018040B9
:100140002010080402010804020101020408102022
:1001500040800102040810204080050505050705C0
:1001600008080808020202020A0A08080404040433
:10017000010101010101010103030303030303035F
:10018000040707070C0C0C0C0C0C0C0C02020202EE
:1001900006060606060606060B0B0B0B0B0B0B0BD7
:1001A00000002200250028002B002E003100340022
:1001B00002010000050108010B01000021002400DC
:1001C00027002A002D003000330001010000040147
:1001D00007010A015C013905600111241FBECFEF40
:1001E000D1E2DEBFCDBF00E00CBF12E0A0E0B2E084
:1001F000E4EAF7E100E00BBF02C007900D92A833DC
:10020000B107D9F723E0A8E3B2E001C01D92A03105
:10021000B207E1F710E0CCEED0E000E006C0219795
:100220000109802FFE010E945708CA3ED10780E0D5
:100230000807A9F70E940B070C94C00B0C94000050
:10024000CF93DF93EC0167E072E086E692E00E94D4
:10025000A205CE010E949A01AB01BC0122E030E070
:1002600086E692E00E94F8066EE072E086E692E092
:100270000E94A20540E050E068EC71E4CE010E94CB
:100280006B02AB01BC0122E030E086E692E0DF9138
:10029000CF910C94F80626E040E052EC61E070E06B
:1002A00086E692E00E946D0488E392E00C9492014D
:1002B00088E392E00C94200188E392E00C946401BE
:1002C00088E392E00C947E01CF93DF93EC0180E011
:1002D00090E0A8EDB1E48E839F83A887B9878CE373
:1002E00090E00E941A07998388838CE390E00E9433
:1002F0001A079D838C83DF91CF910895CF93DF936D
:10030000EC0188819981009711F00E941C078C8173
:100310009D81009721F0DF91CF910C941C07DF9114
:10032000CF91089560E080E40E94F90760E081E4E5
:100330000C94F907AF92BF92CF92DF92EF92FF92A7
:100340000F931F93CF93DF938C0180915A028111F9
:100350000DC00E94680760936202709363028093ED
:1003600064029093650281E080935A020E946807BC
:10037000C0906202D0906302E0906402F090650247
:100380006C197D098E099F096932710581059105F6
:1003900008F47CC00E946807609362027093630255
:1003A0008093640290936502809158029091590263
:1003B000880F991FD801CD91DC91C80FD91F80E417
:1003C0000E94D60799838883F801A080B180C50177
:1003D000CA96D501ED012D913C9111974A815B811F
:1003E0004217530764F4F801338322832A813B8147
:1003F00011963C932E93228133813B832A8322964C
:100400008C179D0741F71296A817B90719F79501A0
:10041000245C3F4F60E070E0CB01D501CD90DD90D2
:100420005D010D2C000CEE08FF086C0D7D1D8E1D6E
:100430009F1D2A173B0789F72EE130E040E050E08E
:100440000E943508CA01B9010E94720920E030E01B
:1004500040EA50E40E94290A20E030E040E85AE3F4
:100460000E94290A609354027093550280935602A9
:1004700090935702809158029091590201968F31C2
:10048000910524F5909359028093580226E636E6AA
:1004900046EB50EC609154027091550280915602E7
:1004A000909157020E94290AF801268137814085E0
:1004B00051850E946008DF91CF911F910F91FF90AD
:1004C000EF90DF90CF90BF90AF90089510925902B7
:1004D00010925802DBCF8F929F92AF92BF92CF9231
:1004E000DF92EF92FF920F931F93CF93DF938C01D4
:1004F0006A017B018091480281110DC00E9468074A
:100500006093500270935102809352029093530271
:1005100081E0809348020E9468078090500290908A
:100520005102A0905202B0905302681979098A09C9
:100530009B09693271058105910508F45DC00E942F
:100540006807609350027093510280935202909317
:1005500053028091460290914702880F991FD8015B
:100560001496CD91DC91C80FD91F81E40E94D60763
:1005700099838883D8011496ED91FC91AF01445C76
:100580005F4F60E070E0CB0101911191012E000CF2
:10059000220B330B600F711F821F931F4E175F07D3
:1005A00099F72EE130E040E050E00E943508CA01A2
:1005B000B9010E94720920E030E040EA50E40E9454
:1005C000290A20E030E040E85AE30E94290A6093BB
:1005D00042027093430280934402909345028091BB
:1005E00046029091470201968F3191050CF06FC041
:1005F000909347028093460220E030E048EC51E4BB
:10060000C701B6010E945F082AE037ED43EA5CE3C8
:100610000E94290A20E030E040E85FE30E94600881
:100620009B01AC01609142027091430280914402AF
:10063000909145020E94D1086B017C0125E83BE6C0
:1006400045E053E40E94290AA70196010E94290A65
:10065000A70196010E94290A4B015C0129E23CEDA9
:100660004FE753E4C701B6010E94290AA70196018A
:100670000E94290A9B01AC01C501B4010E945F08D8
:100680004B015C0126EF38E546E554E4C701B601AD
:100690000E94290A9B01AC01C501B4010E946008B7
:1006A00020E030E040E05FE30E94290A9B01AC01BA
:1006B0000E946008DF91CF911F910F91FF90EF9002
:1006C000DF90CF90BF90AF909F908F900895109241
:1006D00047021092460290CFFC01918D228D892F06
:1006E00090E0805C9F4F821B91098F73992708953A
:1006F000FC01918D828D981731F0828DE80FF11DEC
:10070000858D90E008958FEF9FEF0895FC01918D06
:10071000828D981761F0A28DAE0FBF2FB11D5D962F
:100720008C91928D9F5F9F73928F90E008958FEFD1
:100730009FEF0895FC01538D448D252F30E0842FC9
:1007400090E0821B930B541710F0CF9608950197F9
:1007500008958FE295E0892B49F080E090E0892BA5
:1007600029F00E942F0581110E94000080E090E096
:10077000892B49F080E090E0892B29F00E9400004D
:1007800081110E94000080E090E0892B49F080E018
:1007900090E0892B29F00E94000081110E94000046
:1007A00080E090E0892B49F080E090E0892B29F0EF
:1007B0000E94000081110C9400000895FC01A48D9A
:1007C000A80FB92FB11DA35ABF4F2C91848D90E073
:1007D00001968F739927848FA689B7892C93A08956
:1007E000B1898C91837080648C93938D848D9813E0
:1007F00006C00288F389E02D80818F7D8083089573
:10080000CF93DF93EC01888D8823B9F0AA89BB8947
:10081000E889F9898C9185FD03C0808186FD0DC032
:100820000FB607FCF7CF8C9185FFF2CF808185FF53
:10083000EDCFCE010E94DE03E9CFDF91CF91089585
:10084000EF92FF920F931F93CF93DF93EC0181E020
:10085000888F9B8D8C8D98131AC0E889F9898081C7
:1008600085FF15C09FB7F894EE89FF896083E889FA
:10087000F98980818370806480839FBF81E090E0EC
:10088000DF91CF911F910F91FF90EF900895F62E79
:100890000B8D10E00F5F1F4F0F731127E02E8C8D13
:1008A0008E110CC00FB607FCFACFE889F989808158
:1008B00085FFF5CFCE010E94DE03F1CFEB8DEC0F6B
:1008C000FD2FF11DE35AFF4FF0829FB7F8940B8F75
:1008D000EA89FB8980818062CFCFCF92DF92EF924D
:1008E000FF921F93CF93DF93EC016A017B01122FDC
:1008F000E889F98982E08083C11481EED806E10499
:10090000F104A1F060E079E08DE390E0A7019601A9
:100910000E943508215031094109510956954795E2
:1009200037952795211580E1380798F0E889F989EE
:10093000108260E874E88EE190E0A70196010E94C1
:100940003508215031094109510956954795379588
:100950002795EC85FD853083EE85FF852083188EF5
:10096000EC89FD891083EA89FB898081806180831D
:10097000EA89FB89808188608083EA89FB8980819C
:1009800080688083EA89FB8980818F7D8083DF9105
:10099000CF911F91FF90EF90DF90CF9008951F921D
:1009A0000F920FB60F9211240BB60F922F938F93C5
:1009B0009F93EF93FF93E0917602F091770280810D
:1009C000E0917C02F0917D0282FD1DC090818091BA
:1009D0007F028F5F8F7320918002821741F0E09138
:1009E0007F02F0E0EA59FD4F958F80937F02FF91DF
:1009F000EF919F918F912F910F900BBE0F900FBE93
:100A00000F901F9018958081F2CF1F920F920FB612
:100A10000F9211240BB60F922F933F934F935F9336
:100A20006F937F938F939F93AF93BF93EF93FF93B6
:100A300086E692E00E94DE03FF91EF91BF91AF91B5
:100A40009F918F917F916F915F914F913F912F91E6
:100A50000F900BBE0F900FBE0F901F90189586E65B
:100A600092E00E946C0321E0892B09F420E0822FA0
:100A70000895E6E6F2E01382128288EE93E0A0E0A9
:100A8000B0E084839583A683B7838AE192E0918363
:100A9000808385EC90E09587848784EC90E097874D
:100AA000868780EC90E0918B808B81EC90E0938B3B
:100AB000828B82EC90E0958B848B86EC90E0978B18
:100AC000868B118E128E138E148E0895AF92BF9264
:100AD000CF92DF92EF92FF920F931F93CF93DF930A
:100AE0006C017B018B01040F151FEB015E01AE1839
:100AF000BF08C017D10759F06991D601ED91FC915B
:100B00000190F081E02DC6011995892B79F7C50177
:100B1000DF91CF911F910F91FF90EF90DF90CF90D9
:100B2000BF90AF900895FB0101900020E9F7319745
:100B3000AF01461B570BDC01ED91FC910280F38164
:100B4000E02D19946115710511F00C94930590E056
:100B500080E00895DC01ED91FC910190F081E02DA1
:100B6000199468E272E00C9493058F929F92AF9271
:100B7000BF92EF92FF920F931F93CF93DF93CDB766
:100B8000DEB7A1970FB6F894DEBF0FBECDBF7C01D4
:100B9000FA01CB0119A2223008F42AE08E010F5D80
:100BA0001F4F822E912CB12CA12CBF01A5019401C5
:100BB0000E943508F901CA016A300CF5605DD80160
:100BC0006E938D01232B242B252B79F790E080E069
:100BD000109721F0BD01C7010E949305A1960FB6A1
:100BE000F894DEBF0FBECDBFDF91CF911F910F9163
:100BF000FF90EF90BF90AF909F908F900895695CA9
:100C0000DECF2115310541F4DC01ED91FC9101901D
:100C1000F081E02D642F19940C94B5059A01AB0175
:100C200070E060E00C9401062F923F924F925F9229
:100C30006F927F928F929F92AF92BF92CF92DF92EC
:100C4000EF92FF921F93CF93DF93EC016A017B0138
:100C5000722EAB019601CB01B6010E94960A6BE29F
:100C600072E0811126C046015701E894B7F82FEFD2
:100C70003FEF4FE75FE7C501B4010E94960A81117B
:100C80000CC02FEF3FEF4FE75FE7C501B4010E94B3
:100C9000CC086FE272E0181664F02FEF3FEF4FE7D9
:100CA0005FE4C701B6010E94240A1816B4F463E396
:100CB00072E0CE01DF91CF911F91FF90EF90DF9016
:100CC000CF90BF90AF909F908F907F906F905F90EC
:100CD0004F903F902F900C9493052FEF3FEF4FE7ED
:100CE0005FECC701B6010E94CC0887FDE0CF20E091
:100CF00030E0A901C701B6010E94CC08312C212C9B
:100D000087FF09C06DE2CE010E94AA051C01F7FA17
:100D1000F094F7F8F09410E060E070E080E09FE37A
:100D2000711641F020E030E040E251E40E94D10829
:100D30001F5FF6CFA70196010E9460082B013C01BE
:100D40000E9443094B015C012AE0BC01A401CE01D1
:100D50000E94B5057C01E20CF31C1123B1F1C50121
:100D6000B4010E9472099B01AC01C301B2010E944F
:100D70005F084B015C016EE2CE010E94AA05E80EFD
:100D8000F91E115010F120E030E040E251E4C501BD
:100D9000B4010E94290A2B013C010E9443094B0126
:100DA0004AE050E0CE010E940E06E80EF91EB401A2
:100DB00090E080E00E9472099B01AC01C301B20186
:100DC0000E945F084B015C01DCCFC701DF91CF912E
:100DD0001F91FF90EF90DF90CF90BF90AF909F90CA
:100DE0008F907F906F905F904F903F902F900895DD
:100DF0000F931F93CF93DF93EC010E9414068C0195
:100E0000CE010E94B105800F911FDF91CF911F91FC
:100E10000F91089508950E9474070E940A070E9486
:100E20004B01C9EAD3E00E9458012097E1F30E94E8
:100E3000A903F9CF0C949B0A0C94370B1F920F92C5
:100E40000FB60F9211242F933F938F939F93AF93DD
:100E5000BF938091040390910503A0910603B09184
:100E600007033091030323E0230F2D3758F5019634
:100E7000A11DB11D209303038093040390930503E8
:100E8000A0930603B0930703809108039091090390
:100E9000A0910A03B0910B030196A11DB11D80938F
:100EA000080390930903A0930A03B0930B03BF9127
:100EB000AF919F918F913F912F910F900FBE0F9007
:100EC0001F90189526E8230F0296A11DB11DD2CFC1
:100ED0002FB7F89460910403709105038091060385
:100EE000909107032FBF0895789484B5826084BDE4
:100EF00084B5816084BD85B5826085BD85B581601E
:100F000085BDEEE6F0E0808181608083E1E8F0E07D
:100F10001082808182608083808181608083E0E8AC
:100F2000F0E0808181608083E1EBF0E0808184608B
:100F30008083E0EBF0E0808181608083E1E9F0E094
:100F4000808182608083808181608083E0E9F0E03D
:100F5000808181608083E1EAF0E08081826080832B
:100F6000808181608083E0EAF0E08081816080831D
:100F7000E1E2F1E080818260808380818160808312
:100F8000E0E2F1E0808181608083EAE7F0E0808147
:100F9000846080838081826080838081816080839F
:100FA0008081806880831092C1000895863308F0A4
:100FB000865320917B00982F9870277F922B9093D7
:100FC0007B002091060290E4299F900111248770F4
:100FD000822B80937C0080917A00806480937A00D9
:100FE00080917A0086FDFCCF809178009091790005
:100FF0000895CF93DF9390E0FC01EC5EFE4F2491C7
:10100000865A9E4FFC0184918823C9F090E0880F96
:10101000991FFC01E654FE4FA591B491FC01E056E6
:10102000FE4FC591D49161110DC09FB7F8948C917A
:10103000209582238C938881282328839FBFDF916A
:10104000CF910895623051F49FB7F8943C91822F6C
:10105000809583238C93E8812E2BEFCF8FB7F89464
:10106000EC912E2B2C938FBFEACFA1E21A2EAA1B54
:10107000BB1BFD010DC0AA1FBB1FEE1FFF1FA21748
:10108000B307E407F50720F0A21BB30BE40BF50B45
:10109000661F771F881F991F1A9469F760957095CE
:1010A000809590959B01AC01BD01CF010895EE0F95
:1010B000FF1F881F8BBF0790F691E02D19945058A1
:1010C000BB27AA270E9477080C94EA090E94DC0932
:1010D00038F00E94E30920F039F49F3F19F426F418
:1010E0000C94D9090EF4E095E7FB0C94D309E92F91
:1010F0000E94FB0958F3BA17620773078407950724
:1011000020F079F4A6F50C941D0A0EF4E0950B2E50
:10111000BA2FA02D0B01B90190010C01CA01A00149
:101120001124FF27591B99F0593F50F4503E68F1A4
:101130001A16F040A22F232F342F4427585FF3CFE5
:10114000469537952795A795F0405395C9F77EF4B6
:101150001F16BA0B620B730B840BBAF09150A1F0FF
:10116000FF0FBB1F661F771F881FC2F70EC0BA0F85
:10117000621F731F841F48F4879577956795B7950D
:10118000F7959E3F08F0B0CF9395880F08F0992708
:10119000EE0F9795879508950E94AF0908F481E0B6
:1011A00008950E94E5080C94EA090E94E30958F0AA
:1011B0000E94DC0940F029F45F3F29F00C94D30928
:1011C00051110C941E0A0C94D9090E94FB0968F372
:1011D0009923B1F3552391F3951B550BBB27AA27F0
:1011E00062177307840738F09F5F5F4F220F331F2A
:1011F000441FAA1FA9F335D00E2E3AF0E0E832D0F2
:1012000091505040E695001CCAF72BD0FE2F29D0F4
:10121000660F771F881FBB1F261737074807AB07C6
:10122000B0E809F0BB0B802DBF01FF2793585F4F3B
:101230003AF09E3F510578F00C94D3090C941E0AA5
:101240005F3FE4F3983ED4F3869577956795B7951D
:10125000F7959F5FC9F7880F911D9695879597F928
:101260000895E1E0660F771F881FBB1F62177307A1
:101270008407BA0720F0621B730B840BBA0BEE1FB6
:1012800088F7E09508950E94030A88F09F5798F028
:10129000B92F9927B751B0F0E1F0660F771F881F7B
:1012A000991F1AF0BA95C9F714C0B13091F00E9495
:1012B0001D0AB1E008950C941D0A672F782F882726
:1012C000B85F39F0B93FCCF3869577956795B395BC
:1012D000D9F73EF490958095709561957F4F8F4F2B
:1012E0009F4F0895E89409C097FB3EF49095809530
:1012F000709561957F4F8F4F9F4F9923A9F0F92FDC
:1013000096E9BB279395F695879577956795B79559
:10131000F111F8CFFAF4BB0F11F460FF1BC06F5F3F
:101320007F4F8F4F9F4F16C0882311F096E911C051
:10133000772321F09EE8872F762F05C0662371F072
:1013400096E8862F70E060E02AF09A95660F771F86
:10135000881FDAF7880F9695879597F90895990F62
:101360000008550FAA0BE0E8FEEF16161706E8076F
:10137000F907C0F012161306E407F50798F0621B90
:10138000730B840B950B39F40A2661F0232B242B65
:10139000252B21F408950A2609F4A140A6958FEF84
:1013A000811D811D089597F99F6780E870E060E0D6
:1013B00008959FEF80EC089500240A9416161706EE
:1013C00018060906089500240A9412161306140636
:1013D00005060895092E0394000C11F4882352F099
:1013E000BB0F40F4BF2B11F460FF04C06F5F7F4F51
:1013F0008F4F9F4F089557FD9058440F551F59F038
:101400005F3F71F04795880F97FB991F61F09F3FF1
:1014100079F087950895121613061406551FF2CF1A
:101420004695F1DF08C0161617061806991FF1CF6A
:1014300086957105610508940895E894BB27662791
:101440007727CB0197F908950E94AF0908F48FEF31
:1014500008950E943C0A0C94EA090E94DC0938F0C5
:101460000E94E30920F0952311F00C94D3090C9409
:10147000D90911240C941E0A0E94FB0970F3959F50
:10148000C1F3950F50E0551F629FF001729FBB277B
:10149000F00DB11D639FAA27F00DB11DAA1F649F17
:1014A0006627B00DA11D661F829F2227B00DA11DCA
:1014B000621F739FB00DA11D621F839FA00D611D50
:1014C000221F749F3327A00D611D231F849F600D71
:1014D000211D822F762F6A2F11249F5750409AF09A
:1014E000F1F088234AF0EE0FFF1FBB1F661F771F26
:1014F000881F91505040A9F79E3F510580F00C94F1
:10150000D3090C941E0A5F3FE4F3983ED4F386950A
:1015100077956795B795F795E7959F5FC1F7FE2B90
:10152000880F911D9695879597F908950E94AF09A8
:10153000880B990B08950F931F93CF93DF938230FD
:10154000910510F482E090E0E0910E03F0910F031A
:1015500030E020E0B0E0A0E0309799F421153105AB
:1015600009F44AC0281B390B24303105D8F58A818B
:101570009B816115710589F1FB0193838283FE01D3
:1015800011C0408151810281138148175907E0F051
:101590004817590799F4109761F012960C93129717
:1015A00013961C933296CF01DF91CF911F910F912B
:1015B000089500930E0310930F03F4CF2115310506
:1015C00051F04217530738F0A901DB019A01BD0120
:1015D000DF01F801C1CFEF01F9CF90930F038093A2
:1015E0000E03CDCFFE01E20FF31F819391932250A2
:1015F000310939832883D7CF20910C0330910D0313
:10160000232B41F4209102023091030230930D0309
:1016100020930C0320910002309101022115310525
:1016200041F42DB73EB74091040250910502241BAE
:10163000350BE0910C03F0910D03E217F307A0F4D2
:101640002E1B3F0B2817390778F0AC014E5F5F4F18
:101650002417350748F04E0F5F1F50930D0340933A
:101660000C03819391939FCFF0E0E0E09CCFCF9368
:10167000DF930097E9F0FC01329713821282A09168
:101680000E03B0910F03ED0130E020E01097A1F4BC
:1016900020813181820F931F20910C0330910D0323
:1016A0002817390709F061C0F0930D03E0930C038C
:1016B000DF91CF910895EA01CE17DF07E8F54A815F
:1016C0005B819E0141155105B1F7E901FB83EA8376
:1016D00049915991C40FD51FEC17FD0761F4808122
:1016E00091810296840F951FE901998388838281F5
:1016F00093819B838A83F0E0E0E012968D919C9128
:1017000013970097B9F52D913C911197CD01029651
:10171000820F931F20910C0330910D032817390776
:1017200039F6309751F510920F0310920E03B093D3
:101730000D03A0930C03BCCFD383C283408151819E
:10174000840F951FC817D90761F44E5F5F4F8881DA
:101750009981480F591F518340838A819B819383CC
:1017600082832115310509F0B0CFF0930F03E09388
:101770000E039ECFFD01DC01C0CF13821282D7CFB2
:1017800010E0CCEED0E000E006C0802FFE010E9409
:1017900057082196011DCD3ED10780E00807A9F723
:0417A000F894FFCFEB
:1017A400000010038000015048203D3E20005444B6
:1017B40053203D3E200000000000200466059A03EB
:1017C40000046C03860378030D0A006E616E0069E1
:0817D4006E66006F76660000EE
:00000001FF
