:100000000C94AD000C94DE000C94DE000C94DE0029
:100010000C94DE000C94DE000C94DE000C94DE00E8
:100020000C94DE000C94DE000C94DE000C94DE00D8
:100030000C94DE000C94DE000C94DE000C94DE00C8
:100040000C94DE000C94DE000C94DE000C94DE00B8
:100050000C94DE000C94DE000C94DE000C9403057E
:100060000C94DE000C9403040C9439040C94DE0010
:100070000C94DE000C94DE000C94DE000C94DE0088
:100080000C94DE000C94DE000C94DE000C94DE0078
:100090000C94DE000C94DE000C94DE000C94DE0068
:1000A0000C94DE000C94DE000C94DE000C94DE0058
:1000B0000C94DE000C94DE000C94DE000C94DE0048
:1000C0000C94DE000C94DE000C94DE000C94DE0038
:1000D0000C94DE000C94DE000C94DE000C94DE0028
:1000E0000C94DE000C9416010C9496020C9486027B
:1000F0000C9434030C947E020C94AC020C946304B4
:100100000C9406020C9422010C9454030C949A044F
:100110000C94E6000C94DD020C9410010C94CE02B9
:100120000C94F8000C941C010C940A010C946D04BE
:100130000C94EC000C94FE000C9482020C94A0022F
:100140000C9400020C9404010C94BA020C94F2007A
:100150000C94E0007E026D04820211241FBECFEFDA
:10016000D1E2DEBFCDBF00E00CBF12E0A0E0B2E004
:10017000E0E2FEE000E00BBF02C007900D92AA3E55
:10018000B107D9F723E0AAEEB2E001C01D92AA3967
:10019000B207E1F710E0CCEAD0E000E006C021971A
:1001A0000109802FFE010E94D105CA3AD10780E0E3
:1001B0000807A9F70E94F2040C94FE060C940000B4
:1001C00062E372E080EF92E00C94DA0467E372E09D
:1001D00080EF92E00C94DA046CE372E080EF92E03E
:1001E0000C94DA0461E472E080EF92E00C94DA049B
:1001F00066E472E080EF92E00C94DA046BE472E063
:1002000080EF92E00C94DA0460E572E080EF92E017
:100210000C94DA0465E572E080EF92E00C94DA0465
:100220006AE572E080EF92E00C94DA046FE572E028
:1002300080EF92E00C94DA0464E672E080EF92E0E2
:100240000C94DA046AE672E080EF92E00C94DA042F
:10025000CF93DF93EC0184E792E09983888380E376
:1002600090E00E940105FC019B838A831182108229
:1002700081E090E09383828380910602909107024F
:10028000A0910802B091090284839583A683B78365
:1002900080910A0290910B02A0910C02B0910D0284
:1002A00080879187A287B38780910E0290910F0279
:1002B000A0911002B091110284879587A687B78715
:1002C0008091120290911302A0911402B091150234
:1002D000808B918BA28BB38B809116029091170229
:1002E000A0911802B0911902848B958BA68BB78BC5
:1002F00080911A0290911B02A0911C02B0911D02E4
:10030000808F918FA28FB38F80911E0290911F02D8
:10031000A0912002B0912102848F958FA68FB78F74
:100320008091220290912302A0912402B091250293
:1003300080A391A3A2A3B3A3809126029091270248
:10034000A0912802B091290284A395A3A6A3B7A3E4
:1003500080912A0290912B02A0912C02B0912D0243
:1003600080A791A7A2A7B3A780912E0290912F02F8
:10037000A0913002B091310284A795A7A6A7B7A794
:10038000DF91CF9108950895CF92DF92EF92FF927F
:100390000F931F93CF93DF938C017B01D0E0C0E0DC
:1003A0006B01CC0CDD1CCC0CDD1CEC16FD06D9F46D
:1003B000D8011296ED91FC91EC0DFD1D2281338147
:1003C000C90195958795800F911F0190F081E02DCF
:1003D00020FF08C0DC012D913C91E20FF31F01903A
:1003E000F081E02D19952196CC30D105F1F6DF9101
:1003F000CF911F910F91FF90EF90DF90CF900895D4
:100400006CE872E080EF92E00C94DA04DC01ED918C
:10041000FC917C9720813181820F931F0C94000204
:10042000CF93DF93EC01E881F98136978081918148
:1004300064E070E08C0F9D1F0E94C401E881F98187
:100440003697808191816BE070E08C0F9D1FDF916A
:10045000CF910C94C401FB0120813181FC013183D7
:100460002083FB014281538126503109F90120810B
:100470003181820F931FFC01518340830895CF93F4
:10048000DF93EC0102960E9428018CE992E09983A7
:1004900088838CEB92E09B838A83DF91CF910895D0
:1004A00026E040E855E260E070E080EF92E00E94D4
:1004B000A1038AEE92E00C9410020895FB012081C2
:1004C0003181FC0131832083FB014281538126501D
:1004D0003109F90120813181820F931FFC01518381
:1004E000408308952CE932E0FC01318320832CEB1A
:1004F00032E03383228302960C94C3018AEE92E0A9
:100500000C943F028AEE92E00C947202DC01ED91B1
:10051000FC91369720813181820F931F0E94F80051
:100520006FE872E080EF92E00C94DA04DC01ED9168
:10053000FC913E9720813181820F931F0C9486029B
:10054000FC01918D228D892F90E0805C9F4F821B52
:1005500091098F7399270895FC01918D828D9817C9
:1005600031F0828DE80FF11D858D90E008958FEFB9
:100570009FEF0895FC01918D828D981761F0A28DF7
:10058000AE0FBF2FB11D5D968C91928D9F5F9F73B3
:10059000928F90E008958FEF9FEF0895FC01538DA7
:1005A000448D252F30E0842F90E0821B930B54174D
:1005B00010F0CF9608950197089583E694E0892B73
:1005C00049F080E090E0892B29F00E9463048111BA
:1005D0000E94000080E090E0892B49F080E090E0EC
:1005E000892B29F00E94000081110E94000080E008
:1005F00090E0892B49F080E090E0892B29F00E945F
:10060000000081110E94000080E090E0892B49F0F9
:1006100080E090E0892B29F00E94000081110C9469
:1006200000000895FC01A48DA80FB92FB11DA35A95
:10063000BF4F2C91848D90E001968F739927848F02
:10064000A689B7892C93A089B1898C918370806425
:100650008C93938D848D981306C00288F389E02DC6
:1006600080818F7D80830895CF93DF93EC01888D07
:100670008823B9F0AA89BB89E889F9898C9185FD1D
:1006800003C0808186FD0DC00FB607FCF7CF8C91AB
:1006900085FFF2CF808185FFEDCFCE010E9412034E
:1006A000E9CFDF91CF910895EF92FF920F931F93BF
:1006B000CF93DF93EC0181E0888F9B8D8C8D981315
:1006C0001AC0E889F989808185FF15C09FB7F89421
:1006D000EE89FF896083E889F9898081837080646D
:1006E00080839FBF81E090E0DF91CF911F910F91B8
:1006F000FF90EF900895F62E0B8D10E00F5F1F4FC7
:100700000F731127E02E8C8D8E110CC00FB607FCD5
:10071000FACFE889F989808185FFF5CFCE010E9463
:100720001203F1CFEB8DEC0FFD2FF11DE35AFF4FBC
:10073000F0829FB7F8940B8FEA89FB8980818062F1
:10074000CFCFCF92DF92EF92FF921F93CF93DF93A1
:10075000EC016A017B01122FE889F98982E080832C
:10076000C11481EED806E104F104A1F060E079E063
:100770008DE390E0A70196010E94AF052150310959
:10078000410951095695479537952795211580E1DF
:10079000380798F0E889F989108260E874E88EE1FA
:1007A00090E0A70196010E94AF052150310941094F
:1007B00051095695479537952795EC85FD853083EA
:1007C000EE85FF852083188EEC89FD891083EA89E8
:1007D000FB89808180618083EA89FB8980818860D0
:1007E0008083EA89FB89808180688083EA89FB892C
:1007F00080818F7D8083DF91CF911F91FF90EF905B
:10080000DF90CF9008951F920F920FB60F92112490
:100810000BB60F922F938F939F93EF93FF93E091DB
:100820000003F09101038081E0910603F09107033A
:1008300082FD1DC09081809109038F5F8F7320918D
:100840000A03821741F0E0910903F0E0E051FD4F07
:10085000958F80930903FF91EF919F918F912F9135
:100860000F900BBE0F900FBE0F901F9018958081B8
:10087000F2CF1F920F920FB60F9211240BB60F9268
:100880002F933F934F935F936F937F938F939F9398
:10089000AF93BF93EF93FF9380EF92E00E94120318
:1008A000FF91EF91BF91AF919F918F917F916F9148
:1008B0005F914F913F912F910F900BBE0F900FBE04
:1008C0000F901F90189580EF92E00E94A00221E007
:1008D000892B09F420E0822F0895E0EFF2E01382E3
:1008E000128288EE93E0A0E0B0E084839583A68333
:1008F000B78388ED92E09183808385EC90E09587C3
:10090000848784EC90E09787868780EC90E0918BD9
:10091000808B81EC90E0938B828B82EC90E0958BC6
:10092000848B86EC90E0978B868B118E128E138EC3
:10093000148E0895AF92BF92CF92DF92EF92FF9202
:100940000F931F93CF93DF936C017B018B01040FF7
:10095000151FEB015E01AE18BF08C017D10759F093
:100960006991D601ED91FC910190F081E02DC601D5
:100970001995892B79F7C501DF91CF911F910F91BF
:10098000FF90EF90DF90CF90BF90AF900895FB0164
:1009900001900020E9F73197AF01461B570BDC01AE
:1009A000ED91FC910280F381E02D199466EE72E0E6
:1009B0000C94C7040F931F93CF93DF938C01D0E067
:1009C000C0E06115710519F00E94C704EC01C8016F
:1009D0000E94D6048C0F9D1FDF91CF911F910F9124
:1009E000089508950E944D050E94F1040E9450024E
:1009F000CDEDD2E00E945D022097E1F30E94DD027E
:100A0000F9CF0C94D9051F920F920FB60F921124B3
:100A10002F933F938F939F93AF93BF9380918E03B8
:100A200090918F03A0919003B091910330918D0329
:100A300023E0230F2D3758F50196A11DB11D2093FA
:100A40008D0380938E0390938F03A0939003B093B4
:100A500091038091920390919303A0919403B0919C
:100A600095030196A11DB11D80939203909393036A
:100A7000A0939403B0939503BF91AF919F918F91F1
:100A80003F912F910F900FBE0F901F90189526E861
:100A9000230F0296A11DB11DD2CF789484B5826038
:100AA00084BD84B5816084BD85B5826085BD85B512
:100AB000816085BDEEE6F0E0808181608083E1E8C1
:100AC000F0E01082808182608083808181608083F9
:100AD000E0E8F0E0808181608083E1EBF0E08081FC
:100AE00084608083E0EBF0E0808181608083E1E9D5
:100AF000F0E0808182608083808181608083E0E992
:100B0000F0E0808181608083E1EAF0E080818260B2
:100B10008083808181608083E0EAF0E08081816071
:100B20008083E1E2F1E08081826080838081816066
:100B30008083E0E2F1E0808181608083EAE7F0E099
:100B400080818460808380818260808380818160F5
:100B500080838081806880831092C1000895A1E223
:100B60001A2EAA1BBB1BFD010DC0AA1FBB1FEE1F27
:100B7000FF1FA217B307E407F50720F0A21BB30B72
:100B8000E40BF50B661F771F881F991F1A9469F7EE
:100B900060957095809590959B01AC01BD01CF014A
:100BA0000895EE0FFF1F881F8BBF0790F691E02D71
:100BB00019940F931F93CF93DF938230910510F414
:100BC00082E090E0E0919803F091990330E020E01A
:100BD000B0E0A0E0309799F42115310509F44AC03E
:100BE000281B390B24303105D8F58A819B8161158A
:100BF000710589F1FB0193838283FE0111C040815D
:100C000051810281138148175907E0F048175907AD
:100C100099F4109761F012960C93129713961C9307
:100C20003296CF01DF91CF911F910F9108950093DC
:100C3000980310939903F4CF2115310551F0421711
:100C4000530738F0A901DB019A01BD01DF01F8016A
:100C5000C1CFEF01F9CF9093990380939803CDCF43
:100C6000FE01E20FF31F81939193225031093983E2
:100C70002883D7CF2091960330919703232B41F4FB
:100C80002091020230910302309397032093960340
:100C900020910002309101022115310541F42DB758
:100CA0003EB74091040250910502241B350BE091A0
:100CB0009603F0919703E217F307A0F42E1B3F0B66
:100CC0002817390778F0AC014E5F5F4F24173507BE
:100CD00048F04E0F5F1F5093970340939603819304
:100CE00091939FCFF0E0E0E09CCFCF93DF9300970C
:100CF000E9F0FC01329713821282A0919803B0911F
:100D00009903ED0130E020E01097A1F420813181BA
:100D1000820F931F2091960330919703281739076C
:100D200009F061C0F0939703E0939603DF91CF91B0
:100D30000895EA01CE17DF07E8F54A815B819E013D
:100D400041155105B1F7E901FB83EA8349915991B6
:100D5000C40FD51FEC17FD0761F4808191810296C5
:100D6000840F951FE90199838883828193819B83F6
:100D70008A83F0E0E0E012968D919C9113970097A2
:100D8000B9F52D913C911197CD010296820F931FD9
:100D900020919603309197032817390739F6309739
:100DA00051F51092990310929803B0939703A09372
:100DB0009603BCCFD383C28340815181840F951F9A
:100DC000C817D90761F44E5F5F4F88819981480F3A
:100DD000591F518340838A819B819383828321158C
:100DE000310509F0B0CFF0939903E09398039ECFBB
:100DF000FD01DC01C0CF13821282D7CF10E0CCEA14
:100E0000D0E000E006C0802FFE010E94D1052196AF
:100E1000011DCD3AD10780E00807A9F7F894FFCF6C
:100E200000009A0380000200010004000100060097
:100E30000100080001000A0001000C0001000E0082
:100E40000100100001001200010014000100160052
:100E5000010065785F300065785F310065785F324A
:100E60000065785F330065785F340065785F350032
:100E700065785F360065785F370065785F380065B4
:100E8000785F390065785F31300065785F31310017
:100E900000000000E000E600EC00F200F800FE00B8
:100EA00004010A01100116011C01220159590051C7
:100EB00055009C02BC0202000000000086020002F5
:100EC000FEFF000000000000000000000000FEFF28
:100ED0000000000000000000FEFF0000E000E6004F
:100EE000EC00F2009602FE0004010A011001160156
:100EF0001C0106020000000054039A04CE023403D1
:0A0F0000A002BA02AC020D0A0000C4
:00000001FF
